{
  "_format": "hh-sol-artifact-1",
  "contractName": "Munity",
  "sourceName": "contracts/munity.sol",
  "abi": [
    {
      "inputs": [],
      "stateMutability": "nonpayable",
      "type": "constructor"
    },
    {
      "inputs": [],
      "name": "AmountCantBeZero",
      "type": "error"
    },
    {
      "inputs": [],
      "name": "CommunityNotRegistered",
      "type": "error"
    },
    {
      "inputs": [
        {
          "internalType": "address",
          "name": "sender",
          "type": "address"
        },
        {
          "internalType": "uint256",
          "name": "balance",
          "type": "uint256"
        },
        {
          "internalType": "uint256",
          "name": "needed",
          "type": "uint256"
        },
        {
          "internalType": "uint256",
          "name": "tokenId",
          "type": "uint256"
        }
      ],
      "name": "ERC1155InsufficientBalance",
      "type": "error"
    },
    {
      "inputs": [
        {
          "internalType": "address",
          "name": "approver",
          "type": "address"
        }
      ],
      "name": "ERC1155InvalidApprover",
      "type": "error"
    },
    {
      "inputs": [
        {
          "internalType": "uint256",
          "name": "idsLength",
          "type": "uint256"
        },
        {
          "internalType": "uint256",
          "name": "valuesLength",
          "type": "uint256"
        }
      ],
      "name": "ERC1155InvalidArrayLength",
      "type": "error"
    },
    {
      "inputs": [
        {
          "internalType": "address",
          "name": "operator",
          "type": "address"
        }
      ],
      "name": "ERC1155InvalidOperator",
      "type": "error"
    },
    {
      "inputs": [
        {
          "internalType": "address",
          "name": "receiver",
          "type": "address"
        }
      ],
      "name": "ERC1155InvalidReceiver",
      "type": "error"
    },
    {
      "inputs": [
        {
          "internalType": "address",
          "name": "sender",
          "type": "address"
        }
      ],
      "name": "ERC1155InvalidSender",
      "type": "error"
    },
    {
      "inputs": [
        {
          "internalType": "address",
          "name": "operator",
          "type": "address"
        },
        {
          "internalType": "address",
          "name": "owner",
          "type": "address"
        }
      ],
      "name": "ERC1155MissingApprovalForAll",
      "type": "error"
    },
    {
      "inputs": [
        {
          "internalType": "uint256",
          "name": "numerator",
          "type": "uint256"
        },
        {
          "internalType": "uint256",
          "name": "denominator",
          "type": "uint256"
        }
      ],
      "name": "ERC2981InvalidDefaultRoyalty",
      "type": "error"
    },
    {
      "inputs": [
        {
          "internalType": "address",
          "name": "receiver",
          "type": "address"
        }
      ],
      "name": "ERC2981InvalidDefaultRoyaltyReceiver",
      "type": "error"
    },
    {
      "inputs": [
        {
          "internalType": "uint256",
          "name": "tokenId",
          "type": "uint256"
        },
        {
          "internalType": "uint256",
          "name": "numerator",
          "type": "uint256"
        },
        {
          "internalType": "uint256",
          "name": "denominator",
          "type": "uint256"
        }
      ],
      "name": "ERC2981InvalidTokenRoyalty",
      "type": "error"
    },
    {
      "inputs": [
        {
          "internalType": "uint256",
          "name": "tokenId",
          "type": "uint256"
        },
        {
          "internalType": "address",
          "name": "receiver",
          "type": "address"
        }
      ],
      "name": "ERC2981InvalidTokenRoyaltyReceiver",
      "type": "error"
    },
    {
      "inputs": [
        {
          "internalType": "uint256",
          "name": "_max",
          "type": "uint256"
        }
      ],
      "name": "FeeTooHigh",
      "type": "error"
    },
    {
      "inputs": [],
      "name": "InvalidDiscount",
      "type": "error"
    },
    {
      "inputs": [
        {
          "internalType": "uint256",
          "name": "_limit",
          "type": "uint256"
        }
      ],
      "name": "LimitExceeded",
      "type": "error"
    },
    {
      "inputs": [
        {
          "internalType": "uint256",
          "name": "_reqPrice",
          "type": "uint256"
        }
      ],
      "name": "MoneyNotEnough",
      "type": "error"
    },
    {
      "inputs": [
        {
          "internalType": "uint256",
          "name": "_supply",
          "type": "uint256"
        }
      ],
      "name": "NotEnoughSupply",
      "type": "error"
    },
    {
      "inputs": [
        {
          "internalType": "address",
          "name": "owner",
          "type": "address"
        }
      ],
      "name": "OwnableInvalidOwner",
      "type": "error"
    },
    {
      "inputs": [
        {
          "internalType": "address",
          "name": "account",
          "type": "address"
        }
      ],
      "name": "OwnableUnauthorizedAccount",
      "type": "error"
    },
    {
      "inputs": [],
      "name": "PriceCantBeZero",
      "type": "error"
    },
    {
      "inputs": [],
      "name": "ReentrancyGuardReentrantCall",
      "type": "error"
    },
    {
      "inputs": [],
      "name": "SupplyCantBeZero",
      "type": "error"
    },
    {
      "inputs": [],
      "name": "TransferFailed",
      "type": "error"
    },
    {
      "anonymous": false,
      "inputs": [
        {
          "indexed": true,
          "internalType": "address",
          "name": "account",
          "type": "address"
        },
        {
          "indexed": true,
          "internalType": "address",
          "name": "operator",
          "type": "address"
        },
        {
          "indexed": false,
          "internalType": "bool",
          "name": "approved",
          "type": "bool"
        }
      ],
      "name": "ApprovalForAll",
      "type": "event"
    },
    {
      "anonymous": false,
      "inputs": [
        {
          "indexed": true,
          "internalType": "address",
          "name": "_by",
          "type": "address"
        },
        {
          "indexed": false,
          "internalType": "uint256",
          "name": "_id",
          "type": "uint256"
        }
      ],
      "name": "CommunityRegistered",
      "type": "event"
    },
    {
      "anonymous": false,
      "inputs": [
        {
          "indexed": false,
          "internalType": "uint256",
          "name": "_id",
          "type": "uint256"
        },
        {
          "indexed": false,
          "internalType": "uint256",
          "name": "_oldDiscount",
          "type": "uint256"
        },
        {
          "indexed": false,
          "internalType": "uint256",
          "name": "_newDiscount",
          "type": "uint256"
        }
      ],
      "name": "DiscountChanged",
      "type": "event"
    },
    {
      "anonymous": false,
      "inputs": [
        {
          "indexed": false,
          "internalType": "uint256",
          "name": "_oldFee",
          "type": "uint256"
        },
        {
          "indexed": false,
          "internalType": "uint256",
          "name": "_newFee",
          "type": "uint256"
        }
      ],
      "name": "FeeChanged",
      "type": "event"
    },
    {
      "anonymous": false,
      "inputs": [
        {
          "indexed": false,
          "internalType": "uint256",
          "name": "_id",
          "type": "uint256"
        },
        {
          "indexed": false,
          "internalType": "address",
          "name": "_by",
          "type": "address"
        },
        {
          "indexed": false,
          "internalType": "uint256",
          "name": "amount",
          "type": "uint256"
        }
      ],
      "name": "ItemBought",
      "type": "event"
    },
    {
      "anonymous": false,
      "inputs": [
        {
          "indexed": true,
          "internalType": "address",
          "name": "previousOwner",
          "type": "address"
        },
        {
          "indexed": true,
          "internalType": "address",
          "name": "newOwner",
          "type": "address"
        }
      ],
      "name": "OwnershipTransferred",
      "type": "event"
    },
    {
      "anonymous": false,
      "inputs": [
        {
          "indexed": false,
          "internalType": "uint256",
          "name": "_id",
          "type": "uint256"
        },
        {
          "indexed": false,
          "internalType": "uint256",
          "name": "_oldPrice",
          "type": "uint256"
        },
        {
          "indexed": false,
          "internalType": "uint256",
          "name": "_newPrice",
          "type": "uint256"
        }
      ],
      "name": "PriceChanged",
      "type": "event"
    },
    {
      "anonymous": false,
      "inputs": [
        {
          "indexed": true,
          "internalType": "address",
          "name": "operator",
          "type": "address"
        },
        {
          "indexed": true,
          "internalType": "address",
          "name": "from",
          "type": "address"
        },
        {
          "indexed": true,
          "internalType": "address",
          "name": "to",
          "type": "address"
        },
        {
          "indexed": false,
          "internalType": "uint256[]",
          "name": "ids",
          "type": "uint256[]"
        },
        {
          "indexed": false,
          "internalType": "uint256[]",
          "name": "values",
          "type": "uint256[]"
        }
      ],
      "name": "TransferBatch",
      "type": "event"
    },
    {
      "anonymous": false,
      "inputs": [
        {
          "indexed": true,
          "internalType": "address",
          "name": "operator",
          "type": "address"
        },
        {
          "indexed": true,
          "internalType": "address",
          "name": "from",
          "type": "address"
        },
        {
          "indexed": true,
          "internalType": "address",
          "name": "to",
          "type": "address"
        },
        {
          "indexed": false,
          "internalType": "uint256",
          "name": "id",
          "type": "uint256"
        },
        {
          "indexed": false,
          "internalType": "uint256",
          "name": "value",
          "type": "uint256"
        }
      ],
      "name": "TransferSingle",
      "type": "event"
    },
    {
      "anonymous": false,
      "inputs": [
        {
          "indexed": false,
          "internalType": "string",
          "name": "value",
          "type": "string"
        },
        {
          "indexed": true,
          "internalType": "uint256",
          "name": "id",
          "type": "uint256"
        }
      ],
      "name": "URI",
      "type": "event"
    },
    {
      "anonymous": false,
      "inputs": [
        {
          "indexed": false,
          "internalType": "uint256",
          "name": "_id",
          "type": "uint256"
        },
        {
          "indexed": false,
          "internalType": "string",
          "name": "_newUri",
          "type": "string"
        }
      ],
      "name": "UriChanged",
      "type": "event"
    },
    {
      "inputs": [
        {
          "internalType": "uint256",
          "name": "_id",
          "type": "uint256"
        },
        {
          "internalType": "uint256",
          "name": "_supply",
          "type": "uint256"
        }
      ],
      "name": "addSupply",
      "outputs": [],
      "stateMutability": "nonpayable",
      "type": "function"
    },
    {
      "inputs": [
        {
          "internalType": "uint256",
          "name": "_id",
          "type": "uint256"
        },
        {
          "internalType": "address[]",
          "name": "_addresses",
          "type": "address[]"
        }
      ],
      "name": "addWhiteListing",
      "outputs": [],
      "stateMutability": "nonpayable",
      "type": "function"
    },
    {
      "inputs": [
        {
          "internalType": "address",
          "name": "account",
          "type": "address"
        },
        {
          "internalType": "uint256",
          "name": "id",
          "type": "uint256"
        }
      ],
      "name": "balanceOf",
      "outputs": [
        {
          "internalType": "uint256",
          "name": "",
          "type": "uint256"
        }
      ],
      "stateMutability": "view",
      "type": "function"
    },
    {
      "inputs": [
        {
          "internalType": "address[]",
          "name": "accounts",
          "type": "address[]"
        },
        {
          "internalType": "uint256[]",
          "name": "ids",
          "type": "uint256[]"
        }
      ],
      "name": "balanceOfBatch",
      "outputs": [
        {
          "internalType": "uint256[]",
          "name": "",
          "type": "uint256[]"
        }
      ],
      "stateMutability": "view",
      "type": "function"
    },
    {
      "inputs": [
        {
          "internalType": "uint256",
          "name": "_id",
          "type": "uint256"
        },
        {
          "internalType": "uint256",
          "name": "_amount",
          "type": "uint256"
        }
      ],
      "name": "buy",
      "outputs": [],
      "stateMutability": "payable",
      "type": "function"
    },
    {
      "inputs": [
        {
          "internalType": "uint256",
          "name": "_newFees",
          "type": "uint256"
        }
      ],
      "name": "changeCommunityFee",
      "outputs": [],
      "stateMutability": "nonpayable",
      "type": "function"
    },
    {
      "inputs": [
        {
          "internalType": "uint256",
          "name": "_id",
          "type": "uint256"
        },
        {
          "internalType": "uint256",
          "name": "_discount",
          "type": "uint256"
        }
      ],
      "name": "changeDiscount",
      "outputs": [],
      "stateMutability": "nonpayable",
      "type": "function"
    },
    {
      "inputs": [
        {
          "internalType": "uint256",
          "name": "_id",
          "type": "uint256"
        },
        {
          "internalType": "uint256",
          "name": "_newPrice",
          "type": "uint256"
        }
      ],
      "name": "changePrice",
      "outputs": [],
      "stateMutability": "nonpayable",
      "type": "function"
    },
    {
      "inputs": [
        {
          "internalType": "uint256",
          "name": "_id",
          "type": "uint256"
        },
        {
          "internalType": "string",
          "name": "_newUri",
          "type": "string"
        }
      ],
      "name": "changeUri",
      "outputs": [],
      "stateMutability": "nonpayable",
      "type": "function"
    },
    {
      "inputs": [
        {
          "internalType": "uint256",
          "name": "_id",
          "type": "uint256"
        }
      ],
      "name": "getCommunityDetails",
      "outputs": [
        {
          "internalType": "uint256",
          "name": "price",
          "type": "uint256"
        },
        {
          "internalType": "uint256",
          "name": "supply",
          "type": "uint256"
        },
        {
          "internalType": "uint256",
          "name": "discount",
          "type": "uint256"
        },
        {
          "internalType": "address",
          "name": "creator",
          "type": "address"
        }
      ],
      "stateMutability": "view",
      "type": "function"
    },
    {
      "inputs": [],
      "name": "getCommunityFee",
      "outputs": [
        {
          "internalType": "uint256",
          "name": "",
          "type": "uint256"
        }
      ],
      "stateMutability": "view",
      "type": "function"
    },
    {
      "inputs": [
        {
          "internalType": "address",
          "name": "_user",
          "type": "address"
        },
        {
          "internalType": "uint256",
          "name": "_id",
          "type": "uint256"
        }
      ],
      "name": "getMinting",
      "outputs": [
        {
          "internalType": "uint256",
          "name": "",
          "type": "uint256"
        }
      ],
      "stateMutability": "view",
      "type": "function"
    },
    {
      "inputs": [
        {
          "internalType": "address",
          "name": "account",
          "type": "address"
        },
        {
          "internalType": "address",
          "name": "operator",
          "type": "address"
        }
      ],
      "name": "isApprovedForAll",
      "outputs": [
        {
          "internalType": "bool",
          "name": "",
          "type": "bool"
        }
      ],
      "stateMutability": "view",
      "type": "function"
    },
    {
      "inputs": [
        {
          "internalType": "uint256",
          "name": "_id",
          "type": "uint256"
        },
        {
          "internalType": "address",
          "name": "_address",
          "type": "address"
        }
      ],
      "name": "isWhiteListed",
      "outputs": [
        {
          "internalType": "bool",
          "name": "",
          "type": "bool"
        }
      ],
      "stateMutability": "view",
      "type": "function"
    },
    {
      "inputs": [],
      "name": "name",
      "outputs": [
        {
          "internalType": "string",
          "name": "",
          "type": "string"
        }
      ],
      "stateMutability": "view",
      "type": "function"
    },
    {
      "inputs": [],
      "name": "owner",
      "outputs": [
        {
          "internalType": "address",
          "name": "",
          "type": "address"
        }
      ],
      "stateMutability": "view",
      "type": "function"
    },
    {
      "inputs": [
        {
          "internalType": "uint256",
          "name": "_price",
          "type": "uint256"
        },
        {
          "internalType": "uint256",
          "name": "_supply",
          "type": "uint256"
        },
        {
          "internalType": "uint256",
          "name": "_discount",
          "type": "uint256"
        },
        {
          "internalType": "string",
          "name": "_uri",
          "type": "string"
        }
      ],
      "name": "registerCommunity",
      "outputs": [],
      "stateMutability": "nonpayable",
      "type": "function"
    },
    {
      "inputs": [
        {
          "internalType": "uint256",
          "name": "_id",
          "type": "uint256"
        },
        {
          "internalType": "address[]",
          "name": "_addresses",
          "type": "address[]"
        }
      ],
      "name": "removeWhiteListing",
      "outputs": [],
      "stateMutability": "nonpayable",
      "type": "function"
    },
    {
      "inputs": [],
      "name": "renounceOwnership",
      "outputs": [],
      "stateMutability": "nonpayable",
      "type": "function"
    },
    {
      "inputs": [
        {
          "internalType": "uint256",
          "name": "tokenId",
          "type": "uint256"
        },
        {
          "internalType": "uint256",
          "name": "salePrice",
          "type": "uint256"
        }
      ],
      "name": "royaltyInfo",
      "outputs": [
        {
          "internalType": "address",
          "name": "",
          "type": "address"
        },
        {
          "internalType": "uint256",
          "name": "",
          "type": "uint256"
        }
      ],
      "stateMutability": "view",
      "type": "function"
    },
    {
      "inputs": [
        {
          "internalType": "address",
          "name": "from",
          "type": "address"
        },
        {
          "internalType": "address",
          "name": "to",
          "type": "address"
        },
        {
          "internalType": "uint256[]",
          "name": "ids",
          "type": "uint256[]"
        },
        {
          "internalType": "uint256[]",
          "name": "values",
          "type": "uint256[]"
        },
        {
          "internalType": "bytes",
          "name": "data",
          "type": "bytes"
        }
      ],
      "name": "safeBatchTransferFrom",
      "outputs": [],
      "stateMutability": "nonpayable",
      "type": "function"
    },
    {
      "inputs": [
        {
          "internalType": "address",
          "name": "from",
          "type": "address"
        },
        {
          "internalType": "address",
          "name": "to",
          "type": "address"
        },
        {
          "internalType": "uint256",
          "name": "id",
          "type": "uint256"
        },
        {
          "internalType": "uint256",
          "name": "value",
          "type": "uint256"
        },
        {
          "internalType": "bytes",
          "name": "data",
          "type": "bytes"
        }
      ],
      "name": "safeTransferFrom",
      "outputs": [],
      "stateMutability": "nonpayable",
      "type": "function"
    },
    {
      "inputs": [
        {
          "internalType": "address",
          "name": "operator",
          "type": "address"
        },
        {
          "internalType": "bool",
          "name": "approved",
          "type": "bool"
        }
      ],
      "name": "setApprovalForAll",
      "outputs": [],
      "stateMutability": "nonpayable",
      "type": "function"
    },
    {
      "inputs": [
        {
          "internalType": "bytes4",
          "name": "interfaceId",
          "type": "bytes4"
        }
      ],
      "name": "supportsInterface",
      "outputs": [
        {
          "internalType": "bool",
          "name": "",
          "type": "bool"
        }
      ],
      "stateMutability": "view",
      "type": "function"
    },
    {
      "inputs": [],
      "name": "symbol",
      "outputs": [
        {
          "internalType": "string",
          "name": "",
          "type": "string"
        }
      ],
      "stateMutability": "view",
      "type": "function"
    },
    {
      "inputs": [],
      "name": "totalCommunities",
      "outputs": [
        {
          "internalType": "uint256",
          "name": "",
          "type": "uint256"
        }
      ],
      "stateMutability": "view",
      "type": "function"
    },
    {
      "inputs": [
        {
          "internalType": "address",
          "name": "newOwner",
          "type": "address"
        }
      ],
      "name": "transferOwnership",
      "outputs": [],
      "stateMutability": "nonpayable",
      "type": "function"
    },
    {
      "inputs": [
        {
          "internalType": "uint256",
          "name": "_id",
          "type": "uint256"
        }
      ],
      "name": "uri",
      "outputs": [
        {
          "internalType": "string",
          "name": "",
          "type": "string"
        }
      ],
      "stateMutability": "view",
      "type": "function"
    },
    {
      "stateMutability": "payable",
      "type": "receive"
    }
  ],
  "bytecode": "0x60806040523480156200001157600080fd5b50620000226200016f60201b60201c565b6040518060200160405280600081525062000043816200017760201b60201c565b50600073ffffffffffffffffffffffffffffffffffffffff168173ffffffffffffffffffffffffffffffffffffffff1603620000b95760006040517f1e4fbdf7000000000000000000000000000000000000000000000000000000008152600401620000b0919062000297565b60405180910390fd5b620000ca816200018c60201b60201c565b5060016006819055506040518060400160405280600681526020017f4d756e6974790000000000000000000000000000000000000000000000000000815250600990816200011991906200052e565b506040518060400160405280600281526020017f4d55000000000000000000000000000000000000000000000000000000000000815250600a90816200016091906200052e565b50602460088190555062000615565b600033905090565b80600290816200018891906200052e565b5050565b6000600560009054906101000a900473ffffffffffffffffffffffffffffffffffffffff16905081600560006101000a81548173ffffffffffffffffffffffffffffffffffffffff021916908373ffffffffffffffffffffffffffffffffffffffff1602179055508173ffffffffffffffffffffffffffffffffffffffff168173ffffffffffffffffffffffffffffffffffffffff167f8be0079c531659141344cd1fd0a4f28419497f9722a3daafe3b4186f6b6457e060405160405180910390a35050565b600073ffffffffffffffffffffffffffffffffffffffff82169050919050565b60006200027f8262000252565b9050919050565b620002918162000272565b82525050565b6000602082019050620002ae600083018462000286565b92915050565b600081519050919050565b7f4e487b7100000000000000000000000000000000000000000000000000000000600052604160045260246000fd5b7f4e487b7100000000000000000000000000000000000000000000000000000000600052602260045260246000fd5b600060028204905060018216806200033657607f821691505b6020821081036200034c576200034b620002ee565b5b50919050565b60008190508160005260206000209050919050565b60006020601f8301049050919050565b600082821b905092915050565b600060088302620003b67fffffffffffffffffffffffffffffffffffffffffffffffffffffffffffffffff8262000377565b620003c2868362000377565b95508019841693508086168417925050509392505050565b6000819050919050565b6000819050919050565b60006200040f620004096200040384620003da565b620003e4565b620003da565b9050919050565b6000819050919050565b6200042b83620003ee565b620004436200043a8262000416565b84845462000384565b825550505050565b600090565b6200045a6200044b565b6200046781848462000420565b505050565b5b818110156200048f576200048360008262000450565b6001810190506200046d565b5050565b601f821115620004de57620004a88162000352565b620004b38462000367565b81016020851015620004c3578190505b620004db620004d28562000367565b8301826200046c565b50505b505050565b600082821c905092915050565b60006200050360001984600802620004e3565b1980831691505092915050565b60006200051e8383620004f0565b9150826002028217905092915050565b6200053982620002b4565b67ffffffffffffffff811115620005555762000554620002bf565b5b6200056182546200031d565b6200056e82828562000493565b600060209050601f831160018114620005a6576000841562000591578287015190505b6200059d858262000510565b8655506200060d565b601f198416620005b68662000352565b60005b82811015620005e057848901518255600182019150602085019450602081019050620005b9565b86831015620006005784890151620005fc601f891682620004f0565b8355505b6001600288020188555050505b505050505050565b61497480620006256000396000f3fe6080604052600436106101ba5760003560e01c806390ad688b116100ec578063d6febde81161008a578063f242432a11610064578063f242432a1461063f578063f2fde38b14610668578063f7d0796214610691578063fcb4d206146106ba576101c1565b8063d6febde8146105bd578063e168813b146105d9578063e985e9c514610602576101c1565b8063b3de019c116100c6578063b3de019c14610505578063ba129b9b1461052e578063c37845b21461056b578063c98a87d514610594576101c1565b806390ad688b1461048657806395d89b41146104b1578063a22cb465146104dc576101c1565b80634e1273f411610159578063715018a611610133578063715018a6146103f257806374c48151146104095780637d6c0880146104325780638da5cb5b1461045b576101c1565b80634e1273f41461034c57806358171c4f1461038957806364090c98146103b2576101c1565b80630e89341c116101955780630e89341c1461026b5780630f7cd787146102a85780632a55205a146102e55780632eb2c2d614610323576101c1565b8062fdd58e146101c657806301ffc9a71461020357806306fdde0314610240576101c1565b366101c157005b600080fd5b3480156101d257600080fd5b506101ed60048036038101906101e89190613541565b6106e5565b6040516101fa9190613590565b60405180910390f35b34801561020f57600080fd5b5061022a60048036038101906102259190613603565b61073f565b604051610237919061364b565b60405180910390f35b34801561024c57600080fd5b50610255610751565b60405161026291906136f6565b60405180910390f35b34801561027757600080fd5b50610292600480360381019061028d9190613718565b6107e3565b60405161029f91906136f6565b60405180910390f35b3480156102b457600080fd5b506102cf60048036038101906102ca9190613541565b61088b565b6040516102dc9190613590565b60405180910390f35b3480156102f157600080fd5b5061030c60048036038101906103079190613745565b6108e6565b60405161031a929190613794565b60405180910390f35b34801561032f57600080fd5b5061034a600480360381019061034591906139ba565b610ad0565b005b34801561035857600080fd5b50610373600480360381019061036e9190613b4c565b610b78565b6040516103809190613c82565b60405180910390f35b34801561039557600080fd5b506103b060048036038101906103ab9190613745565b610c81565b005b3480156103be57600080fd5b506103d960048036038101906103d49190613718565b610e78565b6040516103e99493929190613ca4565b60405180910390f35b3480156103fe57600080fd5b50610407610ed9565b005b34801561041557600080fd5b50610430600480360381019061042b9190613d8a565b610eed565b005b34801561043e57600080fd5b5061045960048036038101906104549190613718565b6110b3565b005b34801561046757600080fd5b50610470611147565b60405161047d9190613e0d565b60405180910390f35b34801561049257600080fd5b5061049b611171565b6040516104a89190613590565b60405180910390f35b3480156104bd57600080fd5b506104c661117b565b6040516104d391906136f6565b60405180910390f35b3480156104e857600080fd5b5061050360048036038101906104fe9190613e54565b61120d565b005b34801561051157600080fd5b5061052c60048036038101906105279190613745565b611223565b005b34801561053a57600080fd5b5061055560048036038101906105509190613e94565b611418565b604051610562919061364b565b60405180910390f35b34801561057757600080fd5b50610592600480360381019061058d9190613745565b611483565b005b3480156105a057600080fd5b506105bb60048036038101906105b69190613ed4565b611639565b005b6105d760048036038101906105d29190613745565b61182b565b005b3480156105e557600080fd5b5061060060048036038101906105fb9190613f30565b611dcf565b005b34801561060e57600080fd5b5061062960048036038101906106249190613f8c565b611f7b565b604051610636919061364b565b60405180910390f35b34801561064b57600080fd5b5061066660048036038101906106619190613fcc565b61200f565b005b34801561067457600080fd5b5061068f600480360381019061068a9190614063565b6120b7565b005b34801561069d57600080fd5b506106b860048036038101906106b39190613ed4565b61213d565b005b3480156106c657600080fd5b506106cf61232f565b6040516106dc9190613590565b60405180910390f35b600080600083815260200190815260200160002060008473ffffffffffffffffffffffffffffffffffffffff1673ffffffffffffffffffffffffffffffffffffffff16815260200190815260200160002054905092915050565b600061074a82612339565b9050919050565b606060098054610760906140bf565b80601f016020809104026020016040519081016040528092919081815260200182805461078c906140bf565b80156107d95780601f106107ae576101008083540402835291602001916107d9565b820191906000526020600020905b8154815290600101906020018083116107bc57829003601f168201915b5050505050905090565b6060600b60008381526020019081526020016000206004018054610806906140bf565b80601f0160208091040260200160405190810160405280929190818152602001828054610832906140bf565b801561087f5780601f106108545761010080835404028352916020019161087f565b820191906000526020600020905b81548152906001019060200180831161086257829003601f168201915b50505050509050919050565b6000600c60008473ffffffffffffffffffffffffffffffffffffffff1673ffffffffffffffffffffffffffffffffffffffff168152602001908152602001600020600083815260200190815260200160002054905092915050565b6000806000600460008681526020019081526020016000206040518060400160405290816000820160009054906101000a900473ffffffffffffffffffffffffffffffffffffffff1673ffffffffffffffffffffffffffffffffffffffff1673ffffffffffffffffffffffffffffffffffffffff1681526020016000820160149054906101000a90046bffffffffffffffffffffffff166bffffffffffffffffffffffff166bffffffffffffffffffffffff16815250509050600073ffffffffffffffffffffffffffffffffffffffff16816000015173ffffffffffffffffffffffffffffffffffffffff1603610a7b5760036040518060400160405290816000820160009054906101000a900473ffffffffffffffffffffffffffffffffffffffff1673ffffffffffffffffffffffffffffffffffffffff1673ffffffffffffffffffffffffffffffffffffffff1681526020016000820160149054906101000a90046bffffffffffffffffffffffff166bffffffffffffffffffffffff166bffffffffffffffffffffffff168152505090505b6000610a856123b3565b6bffffffffffffffffffffffff1682602001516bffffffffffffffffffffffff1686610ab1919061411f565b610abb9190614190565b90508160000151819350935050509250929050565b6000610ada6123bd565b90508073ffffffffffffffffffffffffffffffffffffffff168673ffffffffffffffffffffffffffffffffffffffff1614158015610b1f5750610b1d8682611f7b565b155b15610b635780866040517fe237d922000000000000000000000000000000000000000000000000000000008152600401610b5a9291906141c1565b60405180910390fd5b610b7086868686866123c5565b505050505050565b60608151835114610bc457815183516040517f5b059991000000000000000000000000000000000000000000000000000000008152600401610bbb9291906141ea565b60405180910390fd5b6000835167ffffffffffffffff811115610be157610be06137c2565b5b604051908082528060200260200182016040528015610c0f5781602001602082028036833780820191505090505b50905060005b8451811015610c7657610c4c610c3482876124bd90919063ffffffff16565b610c4783876124d190919063ffffffff16565b6106e5565b828281518110610c5f57610c5e614213565b5b602002602001018181525050806001019050610c15565b508091505092915050565b610c896123bd565b82600073ffffffffffffffffffffffffffffffffffffffff16600b600083815260200190815260200160002060030160009054906101000a900473ffffffffffffffffffffffffffffffffffffffff1673ffffffffffffffffffffffffffffffffffffffff1603610d26576040517f73bc190000000000000000000000000000000000000000000000000000000000815260040160405180910390fd5b8173ffffffffffffffffffffffffffffffffffffffff16600b600083815260200190815260200160002060030160009054906101000a900473ffffffffffffffffffffffffffffffffffffffff1673ffffffffffffffffffffffffffffffffffffffff1614610dca576040517f08c379a0000000000000000000000000000000000000000000000000000000008152600401610dc19061428e565b60405180910390fd5b6103e8831115610e06576040517f997ea36000000000000000000000000000000000000000000000000000000000815260040160405180910390fd5b7ff4b346700af107d2a4e2ba593e378c305a8f8d1c615ead32a0e87062ab0c7eb984600b60008781526020019081526020016000206002015485604051610e4f939291906142ae565b60405180910390a182600b60008681526020019081526020016000206002018190555050505050565b6000806000806000600b600087815260200190815260200160002090508060000154945080600101549350806002015492508060030160009054906101000a900473ffffffffffffffffffffffffffffffffffffffff169150509193509193565b610ee16124e5565b610eeb600061256c565b565b60008403610f27576040517f905799f500000000000000000000000000000000000000000000000000000000815260040160405180910390fd5b60008303610f61576040517f99263f9f00000000000000000000000000000000000000000000000000000000815260040160405180910390fd5b6103e8821115610f9d576040517f997ea36000000000000000000000000000000000000000000000000000000000815260040160405180910390fd5b60076000815480929190610fb0906142e5565b9190505550600060075490506000610fc66123bd565b90506000600b60008481526020019081526020016000209050868160000181905550858160010181905550818160030160006101000a81548173ffffffffffffffffffffffffffffffffffffffff021916908373ffffffffffffffffffffffffffffffffffffffff1602179055508381600401908161104591906144d9565b5084816002018190555061105c838361015e612632565b8173ffffffffffffffffffffffffffffffffffffffff167f1e4089ace5d0cd6d2af8387227e93295f77ffe5ffd68c974fbfab9b9f718a6a7846040516110a29190613590565b60405180910390a250505050505050565b6110bb6124e5565b60648111156111025760646040517f7b9314200000000000000000000000000000000000000000000000000000000081526004016110f99190613590565b60405180910390fd5b7f5fc463da23c1b063e66f9e352006a7fbe8db7223c455dc429e881a2dfe2f94f1600854826040516111359291906141ea565b60405180910390a18060088190555050565b6000600560009054906101000a900473ffffffffffffffffffffffffffffffffffffffff16905090565b6000600854905090565b6060600a805461118a906140bf565b80601f01602080910402602001604051908101604052809291908181526020018280546111b6906140bf565b80156112035780601f106111d857610100808354040283529160200191611203565b820191906000526020600020905b8154815290600101906020018083116111e657829003601f168201915b5050505050905090565b61121f6112186123bd565b83836127ea565b5050565b61122b6123bd565b82600073ffffffffffffffffffffffffffffffffffffffff16600b600083815260200190815260200160002060030160009054906101000a900473ffffffffffffffffffffffffffffffffffffffff1673ffffffffffffffffffffffffffffffffffffffff16036112c8576040517f73bc190000000000000000000000000000000000000000000000000000000000815260040160405180910390fd5b8173ffffffffffffffffffffffffffffffffffffffff16600b600083815260200190815260200160002060030160009054906101000a900473ffffffffffffffffffffffffffffffffffffffff1673ffffffffffffffffffffffffffffffffffffffff161461136c576040517f08c379a00000000000000000000000000000000000000000000000000000000081526004016113639061428e565b60405180910390fd5b600083036113a6576040517f905799f500000000000000000000000000000000000000000000000000000000815260040160405180910390fd5b7f2bce37c591c5b0d254c3056688b080a088f160fff82b6e79f456c8a20d5570f684600b600087815260200190815260200160002060000154856040516113ef939291906142ae565b60405180910390a182600b60008681526020019081526020016000206000018190555050505050565b6000600b600084815260200190815260200160002060050160008373ffffffffffffffffffffffffffffffffffffffff1673ffffffffffffffffffffffffffffffffffffffff16815260200190815260200160002060009054906101000a900460ff16905092915050565b61148b6123bd565b82600073ffffffffffffffffffffffffffffffffffffffff16600b600083815260200190815260200160002060030160009054906101000a900473ffffffffffffffffffffffffffffffffffffffff1673ffffffffffffffffffffffffffffffffffffffff1603611528576040517f73bc190000000000000000000000000000000000000000000000000000000000815260040160405180910390fd5b8173ffffffffffffffffffffffffffffffffffffffff16600b600083815260200190815260200160002060030160009054906101000a900473ffffffffffffffffffffffffffffffffffffffff1673ffffffffffffffffffffffffffffffffffffffff16146115cc576040517f08c379a00000000000000000000000000000000000000000000000000000000081526004016115c39061428e565b60405180910390fd5b60008303611606576040517f99263f9f00000000000000000000000000000000000000000000000000000000815260040160405180910390fd5b82600b6000868152602001908152602001600020600101600082825461162c91906145ab565b9250508190555050505050565b6116416123bd565b82600073ffffffffffffffffffffffffffffffffffffffff16600b600083815260200190815260200160002060030160009054906101000a900473ffffffffffffffffffffffffffffffffffffffff1673ffffffffffffffffffffffffffffffffffffffff16036116de576040517f73bc190000000000000000000000000000000000000000000000000000000000815260040160405180910390fd5b8173ffffffffffffffffffffffffffffffffffffffff16600b600083815260200190815260200160002060030160009054906101000a900473ffffffffffffffffffffffffffffffffffffffff1673ffffffffffffffffffffffffffffffffffffffff1614611782576040517f08c379a00000000000000000000000000000000000000000000000000000000081526004016117799061428e565b60405180910390fd5b60005b8351811015611824576000600b600087815260200190815260200160002060050160008684815181106117bb576117ba614213565b5b602002602001015173ffffffffffffffffffffffffffffffffffffffff1673ffffffffffffffffffffffffffffffffffffffff16815260200190815260200160002060006101000a81548160ff02191690831515021790555061181d8161295a565b9050611785565b5050505050565b611833612967565b60008060008061184286610e78565b935093509350935060008403611884576040517f73bc190000000000000000000000000000000000000000000000000000000000815260040160405180910390fd5b600085036118be576040517f46f1397d00000000000000000000000000000000000000000000000000000000815260040160405180910390fd5b60006118c86123bd565b9050603286600c60008473ffffffffffffffffffffffffffffffffffffffff1673ffffffffffffffffffffffffffffffffffffffff16815260200190815260200160002060008a81526020019081526020016000205461192891906145ab565b111561196c5760326040517fcdab4c870000000000000000000000000000000000000000000000000000000081526004016119639190613590565b60405180910390fd5b838611156119b157836040517fdab5fb370000000000000000000000000000000000000000000000000000000081526004016119a89190613590565b60405180910390fd5b60008060008473ffffffffffffffffffffffffffffffffffffffff168473ffffffffffffffffffffffffffffffffffffffff1614611ac0576119f38a85611418565b15611a30576103e88614611a2a576103e88689611a10919061411f565b611a1a9190614190565b88611a2591906145df565b611a2d565b60005b97505b60008989611a3e919061411f565b905080341015611a8557806040517f48273385000000000000000000000000000000000000000000000000000000008152600401611a7c9190613590565b60405180910390fd5b8034611a9191906145df565b93506103e860085482611aa4919061411f565b611aae9190614190565b91508181611abc91906145df565b9250505b88600b60008c81526020019081526020016000206001016000828254611ae691906145df565b9250508190555088600c60008673ffffffffffffffffffffffffffffffffffffffff1673ffffffffffffffffffffffffffffffffffffffff16815260200190815260200160002060008c81526020019081526020016000206000828254611b4d91906145ab565b92505081905550611b6f848b8b604051806020016040528060008152506129ad565b7fd73457218f6ab2c74e548247b8ccd99af11d7975e2beef89a0cd9743fb558da48a858b604051611ba293929190614613565b60405180910390a16000821115611c585760008573ffffffffffffffffffffffffffffffffffffffff1683604051611bd99061467b565b60006040518083038185875af1925050503d8060008114611c16576040519150601f19603f3d011682016040523d82523d6000602084013e611c1b565b606091505b5050905080611c56576040517f90b8ec1800000000000000000000000000000000000000000000000000000000815260040160405180910390fd5b505b6000811115611d0d576000611c6b611147565b73ffffffffffffffffffffffffffffffffffffffff1682604051611c8e9061467b565b60006040518083038185875af1925050503d8060008114611ccb576040519150601f19603f3d011682016040523d82523d6000602084013e611cd0565b606091505b5050905080611d0b576040517f90b8ec1800000000000000000000000000000000000000000000000000000000815260040160405180910390fd5b505b6000831115611dbb5760008473ffffffffffffffffffffffffffffffffffffffff1684604051611d3c9061467b565b60006040518083038185875af1925050503d8060008114611d79576040519150601f19603f3d011682016040523d82523d6000602084013e611d7e565b606091505b5050905080611db9576040517f90b8ec1800000000000000000000000000000000000000000000000000000000815260040160405180910390fd5b505b5050505050505050611dcb612a46565b5050565b611dd76123bd565b82600073ffffffffffffffffffffffffffffffffffffffff16600b600083815260200190815260200160002060030160009054906101000a900473ffffffffffffffffffffffffffffffffffffffff1673ffffffffffffffffffffffffffffffffffffffff1603611e74576040517f73bc190000000000000000000000000000000000000000000000000000000000815260040160405180910390fd5b8173ffffffffffffffffffffffffffffffffffffffff16600b600083815260200190815260200160002060030160009054906101000a900473ffffffffffffffffffffffffffffffffffffffff1673ffffffffffffffffffffffffffffffffffffffff1614611f18576040517f08c379a0000000000000000000000000000000000000000000000000000000008152600401611f0f9061428e565b60405180910390fd5b82600b60008681526020019081526020016000206004019081611f3b91906144d9565b507f727278078475575154367bc16a7a4b8594316c9855643162a77c49ebdd8d2b088484604051611f6d929190614690565b60405180910390a150505050565b6000600160008473ffffffffffffffffffffffffffffffffffffffff1673ffffffffffffffffffffffffffffffffffffffff16815260200190815260200160002060008373ffffffffffffffffffffffffffffffffffffffff1673ffffffffffffffffffffffffffffffffffffffff16815260200190815260200160002060009054906101000a900460ff16905092915050565b60006120196123bd565b90508073ffffffffffffffffffffffffffffffffffffffff168673ffffffffffffffffffffffffffffffffffffffff161415801561205e575061205c8682611f7b565b155b156120a25780866040517fe237d9220000000000000000000000000000000000000000000000000000000081526004016120999291906141c1565b60405180910390fd5b6120af8686868686612a50565b505050505050565b6120bf6124e5565b600073ffffffffffffffffffffffffffffffffffffffff168173ffffffffffffffffffffffffffffffffffffffff16036121315760006040517f1e4fbdf70000000000000000000000000000000000000000000000000000000081526004016121289190613e0d565b60405180910390fd5b61213a8161256c565b50565b6121456123bd565b82600073ffffffffffffffffffffffffffffffffffffffff16600b600083815260200190815260200160002060030160009054906101000a900473ffffffffffffffffffffffffffffffffffffffff1673ffffffffffffffffffffffffffffffffffffffff16036121e2576040517f73bc190000000000000000000000000000000000000000000000000000000000815260040160405180910390fd5b8173ffffffffffffffffffffffffffffffffffffffff16600b600083815260200190815260200160002060030160009054906101000a900473ffffffffffffffffffffffffffffffffffffffff1673ffffffffffffffffffffffffffffffffffffffff1614612286576040517f08c379a000000000000000000000000000000000000000000000000000000000815260040161227d9061428e565b60405180910390fd5b60005b8351811015612328576001600b600087815260200190815260200160002060050160008684815181106122bf576122be614213565b5b602002602001015173ffffffffffffffffffffffffffffffffffffffff1673ffffffffffffffffffffffffffffffffffffffff16815260200190815260200160002060006101000a81548160ff0219169083151502179055506123218161295a565b9050612289565b5050505050565b6000600754905090565b60007f2a55205a000000000000000000000000000000000000000000000000000000007bffffffffffffffffffffffffffffffffffffffffffffffffffffffff1916827bffffffffffffffffffffffffffffffffffffffffffffffffffffffff191614806123ac57506123ab82612b5b565b5b9050919050565b6000612710905090565b600033905090565b600073ffffffffffffffffffffffffffffffffffffffff168473ffffffffffffffffffffffffffffffffffffffff16036124375760006040517f57f447ce00000000000000000000000000000000000000000000000000000000815260040161242e9190613e0d565b60405180910390fd5b600073ffffffffffffffffffffffffffffffffffffffff168573ffffffffffffffffffffffffffffffffffffffff16036124a95760006040517f01a835140000000000000000000000000000000000000000000000000000000081526004016124a09190613e0d565b60405180910390fd5b6124b68585858585612c3d565b5050505050565b600060208202602084010151905092915050565b600060208202602084010151905092915050565b6124ed6123bd565b73ffffffffffffffffffffffffffffffffffffffff1661250b611147565b73ffffffffffffffffffffffffffffffffffffffff161461256a5761252e6123bd565b6040517f118cdaa70000000000000000000000000000000000000000000000000000000081526004016125619190613e0d565b60405180910390fd5b565b6000600560009054906101000a900473ffffffffffffffffffffffffffffffffffffffff16905081600560006101000a81548173ffffffffffffffffffffffffffffffffffffffff021916908373ffffffffffffffffffffffffffffffffffffffff1602179055508173ffffffffffffffffffffffffffffffffffffffff168173ffffffffffffffffffffffffffffffffffffffff167f8be0079c531659141344cd1fd0a4f28419497f9722a3daafe3b4186f6b6457e060405160405180910390a35050565b600061263c6123b3565b6bffffffffffffffffffffffff16905080826bffffffffffffffffffffffff1611156126a3578382826040517fdfd1fc1b00000000000000000000000000000000000000000000000000000000815260040161269a93929190614709565b60405180910390fd5b600073ffffffffffffffffffffffffffffffffffffffff168373ffffffffffffffffffffffffffffffffffffffff1603612717578360006040517f969f085200000000000000000000000000000000000000000000000000000000815260040161270e929190614740565b60405180910390fd5b60405180604001604052808473ffffffffffffffffffffffffffffffffffffffff168152602001836bffffffffffffffffffffffff168152506004600086815260200190815260200160002060008201518160000160006101000a81548173ffffffffffffffffffffffffffffffffffffffff021916908373ffffffffffffffffffffffffffffffffffffffff16021790555060208201518160000160146101000a8154816bffffffffffffffffffffffff02191690836bffffffffffffffffffffffff16021790555090505050505050565b600073ffffffffffffffffffffffffffffffffffffffff168273ffffffffffffffffffffffffffffffffffffffff160361285c5760006040517fced3e1000000000000000000000000000000000000000000000000000000000081526004016128539190613e0d565b60405180910390fd5b80600160008573ffffffffffffffffffffffffffffffffffffffff1673ffffffffffffffffffffffffffffffffffffffff16815260200190815260200160002060008473ffffffffffffffffffffffffffffffffffffffff1673ffffffffffffffffffffffffffffffffffffffff16815260200190815260200160002060006101000a81548160ff0219169083151502179055508173ffffffffffffffffffffffffffffffffffffffff168373ffffffffffffffffffffffffffffffffffffffff167f17307eab39ab6107e8899845ad3d59bd9653f200f220920489ca2b5937696c318360405161294d919061364b565b60405180910390a3505050565b6000600182019050919050565b6002600654036129a3576040517f3ee5aeb500000000000000000000000000000000000000000000000000000000815260040160405180910390fd5b6002600681905550565b600073ffffffffffffffffffffffffffffffffffffffff168473ffffffffffffffffffffffffffffffffffffffff1603612a1f5760006040517f57f447ce000000000000000000000000000000000000000000000000000000008152600401612a169190613e0d565b60405180910390fd5b600080612a2c8585612cef565b91509150612a3e600087848487612c3d565b505050505050565b6001600681905550565b600073ffffffffffffffffffffffffffffffffffffffff168473ffffffffffffffffffffffffffffffffffffffff1603612ac25760006040517f57f447ce000000000000000000000000000000000000000000000000000000008152600401612ab99190613e0d565b60405180910390fd5b600073ffffffffffffffffffffffffffffffffffffffff168573ffffffffffffffffffffffffffffffffffffffff1603612b345760006040517f01a83514000000000000000000000000000000000000000000000000000000008152600401612b2b9190613e0d565b60405180910390fd5b600080612b418585612cef565b91509150612b528787848487612c3d565b50505050505050565b60007fd9b67a26000000000000000000000000000000000000000000000000000000007bffffffffffffffffffffffffffffffffffffffffffffffffffffffff1916827bffffffffffffffffffffffffffffffffffffffffffffffffffffffff19161480612c2657507f0e89341c000000000000000000000000000000000000000000000000000000007bffffffffffffffffffffffffffffffffffffffffffffffffffffffff1916827bffffffffffffffffffffffffffffffffffffffffffffffffffffffff1916145b80612c365750612c3582612d1f565b5b9050919050565b612c4985858585612d89565b600073ffffffffffffffffffffffffffffffffffffffff168473ffffffffffffffffffffffffffffffffffffffff1614612ce8576000612c876123bd565b90506001845103612cd7576000612ca86000866124d190919063ffffffff16565b90506000612cc06000866124d190919063ffffffff16565b9050612cd0838989858589613131565b5050612ce6565b612ce58187878787876132e5565b5b505b5050505050565b60608060405191506001825283602083015260408201905060018152826020820152604081016040529250929050565b60007f01ffc9a7000000000000000000000000000000000000000000000000000000007bffffffffffffffffffffffffffffffffffffffffffffffffffffffff1916827bffffffffffffffffffffffffffffffffffffffffffffffffffffffff1916149050919050565b8051825114612dd357815181516040517f5b059991000000000000000000000000000000000000000000000000000000008152600401612dca9291906141ea565b60405180910390fd5b6000612ddd6123bd565b905060005b8351811015612fec576000612e0082866124d190919063ffffffff16565b90506000612e1783866124d190919063ffffffff16565b9050600073ffffffffffffffffffffffffffffffffffffffff168873ffffffffffffffffffffffffffffffffffffffff1614612f4457600080600084815260200190815260200160002060008a73ffffffffffffffffffffffffffffffffffffffff1673ffffffffffffffffffffffffffffffffffffffff16815260200190815260200160002054905081811015612eec57888183856040517f03dee4c5000000000000000000000000000000000000000000000000000000008152600401612ee39493929190614769565b60405180910390fd5b81810360008085815260200190815260200160002060008b73ffffffffffffffffffffffffffffffffffffffff1673ffffffffffffffffffffffffffffffffffffffff16815260200190815260200160002081905550505b600073ffffffffffffffffffffffffffffffffffffffff168773ffffffffffffffffffffffffffffffffffffffff1614612fdf578060008084815260200190815260200160002060008973ffffffffffffffffffffffffffffffffffffffff1673ffffffffffffffffffffffffffffffffffffffff1681526020019081526020016000206000828254612fd791906145ab565b925050819055505b5050806001019050612de2565b5060018351036130ab57600061300c6000856124d190919063ffffffff16565b905060006130246000856124d190919063ffffffff16565b90508573ffffffffffffffffffffffffffffffffffffffff168773ffffffffffffffffffffffffffffffffffffffff168473ffffffffffffffffffffffffffffffffffffffff167fc3d58168c5ae7397731d063d5bbf3d657854427343f4c083240f7aacaa2d0f62858560405161309c9291906141ea565b60405180910390a4505061312a565b8373ffffffffffffffffffffffffffffffffffffffff168573ffffffffffffffffffffffffffffffffffffffff168273ffffffffffffffffffffffffffffffffffffffff167f4a39dc06d4c0dbc64b70af90fd698a233a518aa5d07e595d983b8c0526c8f7fb86866040516131219291906147ae565b60405180910390a45b5050505050565b60008473ffffffffffffffffffffffffffffffffffffffff163b11156132dd578373ffffffffffffffffffffffffffffffffffffffff1663f23a6e6187878686866040518663ffffffff1660e01b815260040161319295949392919061483a565b6020604051808303816000875af19250505080156131ce57506040513d601f19601f820116820180604052508101906131cb91906148a9565b60015b613252573d80600081146131fe576040519150601f19603f3d011682016040523d82523d6000602084013e613203565b606091505b50600081510361324a57846040517f57f447ce0000000000000000000000000000000000000000000000000000000081526004016132419190613e0d565b60405180910390fd5b805181602001fd5b63f23a6e6160e01b7bffffffffffffffffffffffffffffffffffffffffffffffffffffffff1916817bffffffffffffffffffffffffffffffffffffffffffffffffffffffff1916146132db57846040517f57f447ce0000000000000000000000000000000000000000000000000000000081526004016132d29190613e0d565b60405180910390fd5b505b505050505050565b60008473ffffffffffffffffffffffffffffffffffffffff163b1115613491578373ffffffffffffffffffffffffffffffffffffffff1663bc197c8187878686866040518663ffffffff1660e01b81526004016133469594939291906148d6565b6020604051808303816000875af192505050801561338257506040513d601f19601f8201168201806040525081019061337f91906148a9565b60015b613406573d80600081146133b2576040519150601f19603f3d011682016040523d82523d6000602084013e6133b7565b606091505b5060008151036133fe57846040517f57f447ce0000000000000000000000000000000000000000000000000000000081526004016133f59190613e0d565b60405180910390fd5b805181602001fd5b63bc197c8160e01b7bffffffffffffffffffffffffffffffffffffffffffffffffffffffff1916817bffffffffffffffffffffffffffffffffffffffffffffffffffffffff19161461348f57846040517f57f447ce0000000000000000000000000000000000000000000000000000000081526004016134869190613e0d565b60405180910390fd5b505b505050505050565b6000604051905090565b600080fd5b600080fd5b600073ffffffffffffffffffffffffffffffffffffffff82169050919050565b60006134d8826134ad565b9050919050565b6134e8816134cd565b81146134f357600080fd5b50565b600081359050613505816134df565b92915050565b6000819050919050565b61351e8161350b565b811461352957600080fd5b50565b60008135905061353b81613515565b92915050565b60008060408385031215613558576135576134a3565b5b6000613566858286016134f6565b92505060206135778582860161352c565b9150509250929050565b61358a8161350b565b82525050565b60006020820190506135a56000830184613581565b92915050565b60007fffffffff0000000000000000000000000000000000000000000000000000000082169050919050565b6135e0816135ab565b81146135eb57600080fd5b50565b6000813590506135fd816135d7565b92915050565b600060208284031215613619576136186134a3565b5b6000613627848285016135ee565b91505092915050565b60008115159050919050565b61364581613630565b82525050565b6000602082019050613660600083018461363c565b92915050565b600081519050919050565b600082825260208201905092915050565b60005b838110156136a0578082015181840152602081019050613685565b60008484015250505050565b6000601f19601f8301169050919050565b60006136c882613666565b6136d28185613671565b93506136e2818560208601613682565b6136eb816136ac565b840191505092915050565b6000602082019050818103600083015261371081846136bd565b905092915050565b60006020828403121561372e5761372d6134a3565b5b600061373c8482850161352c565b91505092915050565b6000806040838503121561375c5761375b6134a3565b5b600061376a8582860161352c565b925050602061377b8582860161352c565b9150509250929050565b61378e816134cd565b82525050565b60006040820190506137a96000830185613785565b6137b66020830184613581565b9392505050565b600080fd5b7f4e487b7100000000000000000000000000000000000000000000000000000000600052604160045260246000fd5b6137fa826136ac565b810181811067ffffffffffffffff82111715613819576138186137c2565b5b80604052505050565b600061382c613499565b905061383882826137f1565b919050565b600067ffffffffffffffff821115613858576138576137c2565b5b602082029050602081019050919050565b600080fd5b600061388161387c8461383d565b613822565b905080838252602082019050602084028301858111156138a4576138a3613869565b5b835b818110156138cd57806138b9888261352c565b8452602084019350506020810190506138a6565b5050509392505050565b600082601f8301126138ec576138eb6137bd565b5b81356138fc84826020860161386e565b91505092915050565b600080fd5b600067ffffffffffffffff821115613925576139246137c2565b5b61392e826136ac565b9050602081019050919050565b82818337600083830152505050565b600061395d6139588461390a565b613822565b90508281526020810184848401111561397957613978613905565b5b61398484828561393b565b509392505050565b600082601f8301126139a1576139a06137bd565b5b81356139b184826020860161394a565b91505092915050565b600080600080600060a086880312156139d6576139d56134a3565b5b60006139e4888289016134f6565b95505060206139f5888289016134f6565b945050604086013567ffffffffffffffff811115613a1657613a156134a8565b5b613a22888289016138d7565b935050606086013567ffffffffffffffff811115613a4357613a426134a8565b5b613a4f888289016138d7565b925050608086013567ffffffffffffffff811115613a7057613a6f6134a8565b5b613a7c8882890161398c565b9150509295509295909350565b600067ffffffffffffffff821115613aa457613aa36137c2565b5b602082029050602081019050919050565b6000613ac8613ac384613a89565b613822565b90508083825260208201905060208402830185811115613aeb57613aea613869565b5b835b81811015613b145780613b0088826134f6565b845260208401935050602081019050613aed565b5050509392505050565b600082601f830112613b3357613b326137bd565b5b8135613b43848260208601613ab5565b91505092915050565b60008060408385031215613b6357613b626134a3565b5b600083013567ffffffffffffffff811115613b8157613b806134a8565b5b613b8d85828601613b1e565b925050602083013567ffffffffffffffff811115613bae57613bad6134a8565b5b613bba858286016138d7565b9150509250929050565b600081519050919050565b600082825260208201905092915050565b6000819050602082019050919050565b613bf98161350b565b82525050565b6000613c0b8383613bf0565b60208301905092915050565b6000602082019050919050565b6000613c2f82613bc4565b613c398185613bcf565b9350613c4483613be0565b8060005b83811015613c75578151613c5c8882613bff565b9750613c6783613c17565b925050600181019050613c48565b5085935050505092915050565b60006020820190508181036000830152613c9c8184613c24565b905092915050565b6000608082019050613cb96000830187613581565b613cc66020830186613581565b613cd36040830185613581565b613ce06060830184613785565b95945050505050565b600067ffffffffffffffff821115613d0457613d036137c2565b5b613d0d826136ac565b9050602081019050919050565b6000613d2d613d2884613ce9565b613822565b905082815260208101848484011115613d4957613d48613905565b5b613d5484828561393b565b509392505050565b600082601f830112613d7157613d706137bd565b5b8135613d81848260208601613d1a565b91505092915050565b60008060008060808587031215613da457613da36134a3565b5b6000613db28782880161352c565b9450506020613dc38782880161352c565b9350506040613dd48782880161352c565b925050606085013567ffffffffffffffff811115613df557613df46134a8565b5b613e0187828801613d5c565b91505092959194509250565b6000602082019050613e226000830184613785565b92915050565b613e3181613630565b8114613e3c57600080fd5b50565b600081359050613e4e81613e28565b92915050565b60008060408385031215613e6b57613e6a6134a3565b5b6000613e79858286016134f6565b9250506020613e8a85828601613e3f565b9150509250929050565b60008060408385031215613eab57613eaa6134a3565b5b6000613eb98582860161352c565b9250506020613eca858286016134f6565b9150509250929050565b60008060408385031215613eeb57613eea6134a3565b5b6000613ef98582860161352c565b925050602083013567ffffffffffffffff811115613f1a57613f196134a8565b5b613f2685828601613b1e565b9150509250929050565b60008060408385031215613f4757613f466134a3565b5b6000613f558582860161352c565b925050602083013567ffffffffffffffff811115613f7657613f756134a8565b5b613f8285828601613d5c565b9150509250929050565b60008060408385031215613fa357613fa26134a3565b5b6000613fb1858286016134f6565b9250506020613fc2858286016134f6565b9150509250929050565b600080600080600060a08688031215613fe857613fe76134a3565b5b6000613ff6888289016134f6565b9550506020614007888289016134f6565b94505060406140188882890161352c565b93505060606140298882890161352c565b925050608086013567ffffffffffffffff81111561404a576140496134a8565b5b6140568882890161398c565b9150509295509295909350565b600060208284031215614079576140786134a3565b5b6000614087848285016134f6565b91505092915050565b7f4e487b7100000000000000000000000000000000000000000000000000000000600052602260045260246000fd5b600060028204905060018216806140d757607f821691505b6020821081036140ea576140e9614090565b5b50919050565b7f4e487b7100000000000000000000000000000000000000000000000000000000600052601160045260246000fd5b600061412a8261350b565b91506141358361350b565b92508282026141438161350b565b9150828204841483151761415a576141596140f0565b5b5092915050565b7f4e487b7100000000000000000000000000000000000000000000000000000000600052601260045260246000fd5b600061419b8261350b565b91506141a68361350b565b9250826141b6576141b5614161565b5b828204905092915050565b60006040820190506141d66000830185613785565b6141e36020830184613785565b9392505050565b60006040820190506141ff6000830185613581565b61420c6020830184613581565b9392505050565b7f4e487b7100000000000000000000000000000000000000000000000000000000600052603260045260246000fd5b7f4e6f7420612043726561746f7200000000000000000000000000000000000000600082015250565b6000614278600d83613671565b915061428382614242565b602082019050919050565b600060208201905081810360008301526142a78161426b565b9050919050565b60006060820190506142c36000830186613581565b6142d06020830185613581565b6142dd6040830184613581565b949350505050565b60006142f08261350b565b91507fffffffffffffffffffffffffffffffffffffffffffffffffffffffffffffffff8203614322576143216140f0565b5b600182019050919050565b60008190508160005260206000209050919050565b60006020601f8301049050919050565b600082821b905092915050565b60006008830261438f7fffffffffffffffffffffffffffffffffffffffffffffffffffffffffffffffff82614352565b6143998683614352565b95508019841693508086168417925050509392505050565b6000819050919050565b60006143d66143d16143cc8461350b565b6143b1565b61350b565b9050919050565b6000819050919050565b6143f0836143bb565b6144046143fc826143dd565b84845461435f565b825550505050565b600090565b61441961440c565b6144248184846143e7565b505050565b5b818110156144485761443d600082614411565b60018101905061442a565b5050565b601f82111561448d5761445e8161432d565b61446784614342565b81016020851015614476578190505b61448a61448285614342565b830182614429565b50505b505050565b600082821c905092915050565b60006144b060001984600802614492565b1980831691505092915050565b60006144c9838361449f565b9150826002028217905092915050565b6144e282613666565b67ffffffffffffffff8111156144fb576144fa6137c2565b5b61450582546140bf565b61451082828561444c565b600060209050601f8311600181146145435760008415614531578287015190505b61453b85826144bd565b8655506145a3565b601f1984166145518661432d565b60005b8281101561457957848901518255600182019150602085019450602081019050614554565b868310156145965784890151614592601f89168261449f565b8355505b6001600288020188555050505b505050505050565b60006145b68261350b565b91506145c18361350b565b92508282019050808211156145d9576145d86140f0565b5b92915050565b60006145ea8261350b565b91506145f58361350b565b925082820390508181111561460d5761460c6140f0565b5b92915050565b60006060820190506146286000830186613581565b6146356020830185613785565b6146426040830184613581565b949350505050565b600081905092915050565b50565b600061466560008361464a565b915061467082614655565b600082019050919050565b600061468682614658565b9150819050919050565b60006040820190506146a56000830185613581565b81810360208301526146b781846136bd565b90509392505050565b60006bffffffffffffffffffffffff82169050919050565b60006146f36146ee6146e9846146c0565b6143b1565b61350b565b9050919050565b614703816146d8565b82525050565b600060608201905061471e6000830186613581565b61472b60208301856146fa565b6147386040830184613581565b949350505050565b60006040820190506147556000830185613581565b6147626020830184613785565b9392505050565b600060808201905061477e6000830187613785565b61478b6020830186613581565b6147986040830185613581565b6147a56060830184613581565b95945050505050565b600060408201905081810360008301526147c88185613c24565b905081810360208301526147dc8184613c24565b90509392505050565b600081519050919050565b600082825260208201905092915050565b600061480c826147e5565b61481681856147f0565b9350614826818560208601613682565b61482f816136ac565b840191505092915050565b600060a08201905061484f6000830188613785565b61485c6020830187613785565b6148696040830186613581565b6148766060830185613581565b81810360808301526148888184614801565b90509695505050505050565b6000815190506148a3816135d7565b92915050565b6000602082840312156148bf576148be6134a3565b5b60006148cd84828501614894565b91505092915050565b600060a0820190506148eb6000830188613785565b6148f86020830187613785565b818103604083015261490a8186613c24565b9050818103606083015261491e8185613c24565b905081810360808301526149328184614801565b9050969550505050505056fea2646970667358221220706d54375d0db38e61269dc13225693a75c638da45bd3f71c73612af2e5deac964736f6c63430008180033",
  "linkReferences": {},
  "deployedLinkReferences": {}
}